:020000040800F2
:10000000B812002021260008F5040008F7040008B3
:10001000FB040008FF0400080305000800000000BE
:1000200000000000000000000000000007050008BC
:1000300009050008000000000B0500080D05000878
:100040003B2600083B2600083B2600083B2600080C
:100050003B2600083B2600083B2600083B260008FC
:100060003B2600083B2600083B2600083B260008EC
:100070003B2600083B2600083B2600083B260008DC
:100080003B2600083B2600083B2600083B260008CC
:100090003B2600083B2600083B2600083B260008BC
:1000A0003B2600083B2600083B2600083B260008AC
:1000B0003B2600083B2600083B2600083B2600089C
:1000C0003B2600083B2600083B2600083B2600088C
:1000D0003B260008FD1700084B1800083B260008C7
:1000E0003B2600083B2600083B26000800F002F8EB
:1000F00000F090F80AA090E8000C82448344AAF132
:100100000107DA4501D100F085F8AFF2090EBAE82F
:100110000F0013F0010F18BFFB1A43F0010318473B
:1001200094A60000B4A60000103A24BF78C878C195
:10013000FAD8520724BF30C830C144BF04680C60ED
:10014000704700000023002400250026103A28BF35
:1001500078C1FBD8520728BF30C148BF0B60704739
:100160006E2904F02584702904F07F87662907F042
:100170000C82652907F00982672907F00682612948
:1001800007F0058203681B0A28BF41F08001692936
:1001900004F0BC81642904F0B981752904F0B681AA
:1001A0006F2904F00C87782904F04B87E92904F0C3
:1001B000A786E42904F0A486F52904F0A186EF2996
:1001C00004F00987F82904F04A870368DB0928BF8F
:1001D00041F08001632905F08D81732905F092813A
:1001E000E32905F09D81F32905F0A28100207047E5
:1001F0001FB504F06DFF04000020002106F0E8F8B0
:10020000401C60600020002106F0CCF8E0601FBDBB
:1002100010B510BD05F026FA1146FFF7E9FF00F012
:1002200009F805F04DFA03B4FFF7F2FF03BC05F03F
:1002300051FA00000EB500F0C4FC02F0ABF901F079
:1002400011FC01F0FDFB02F01FF901F071F900F063
:1002500082FA00F041FB00F0D9FB01F089F900F0CF
:10026000D3FC8448007808B100F0C6FD00E101F03D
:10027000E7FB8148007800287DD0804800F0B5FA7F
:10028000002879D000F054FC0546002106F06EFFEE
:10029000F7D000F04DFC7A490860082379A22321A9
:1002A000002001F054FE082378A20021084601F046
:1002B0004EFE01F04DF90546082003232A46002191
:1002C00000902D2001F05AFE082372A21421002074
:1002D00001F03DFE01F05CF90546082001232A46A5
:1002E000142100902D2001F049FE6548006806F0B9
:1002F00071FF0546082002232A462321009014207E
:1003000001F03CFE082365A23221002001F01FFE0F
:100310005A49C86806F05EFF0546082002232A46AF
:10032000322100901E2001F029FE08235DA2322117
:100330003C2001F00CFE5149886806F04BFF054651
:10034000082002232A46322100905A2001F016FE8E
:10035000082356A232216E2001F0F9FD5449484885
:10036000006806F06BFF0AD2082352A22321322034
:1003700001F0EDFD01E056E03CE000F028FC4C49C6
:100380003F48006807F05AF807D808234CA22321F9
:100390003C2001F0DCFD00F00EFC01F0D9F82D2826
:1003A00005DB082348A20021502001F0D0FD01F018
:1003B000CFF82D2805DA082345A20021502001F0AE
:1003C000C6FD01F0E5F838B900F001FC082342A2AF
:1003D00014213C2001F0BBFD01F0DAF8012807D11F
:1003E00000F0E9FB08233EA214213C2001F0AFFD00
:1003F00001F014FB02F050F83B49087000F098FB44
:10040000054601F0C5F8064601F0A2F80746364851
:1004100000781A4ACDE90065029091680023D068FF
:100420003A4600F057FF31A000F0DBFF0446FF2CF6
:1004300019D0062C16D2DFE804F00306090C0F12BF
:1004400002F01BF80EE002F04CF80BE002F034F87A
:1004500008E002F038F805E002F03CF802E002F0B3
:1004600047F800BF00BF4FF4FA6002F0BDF800BFCC
:10047000FDE60000200000202100002048000020B0
:100480000000002041513A20000000006C696768BC
:10049000743A2000666C616D653A200054656D3ACF
:1004A0002000000048756D3A200000002500000083
:1004B0000000C841456D657267656E637900000094
:1004C000436C65616E0000006272696768740000C9
:1004D0004461726B00000000464952450000000074
:1004E00053414645000000000400002022524742CC
:1004F00022000000704700BFFEE700BFFEE700BF1C
:10050000FEE700BFFEE770477047704710B502F086
:1005100075F810BD0CB50020019000906C48006883
:1005200040F480306A49086000BF6948006800F400
:10053000003000900198401C0190009818B9019873
:10054000B0F5A06FF1D16248006800F4003010B13E
:100550000120009001E0002000900098012843D184
:100560005C48006840F010005A490860084600687E
:1005700020F0030008600846006840F002000860B0
:1005800053484068524948600846406848600846F9
:10059000406840F4806048600846406820F47C1061
:1005A00048600846406840F4E81048600846006823
:1005B00040F08070086000BF4548006800F000709F
:1005C0000028F9D04248406820F0030040494860C4
:1005D0000846406840F00200486000BF3C48406860
:1005E00000F00C000828F9D10CBD10B5FFF792FF00
:1005F00010BD10B53648006840F00100344908606D
:100600000846406834490840314948600846006857
:10061000324908402E4908600846006820F48020CE
:1006200008600846406820F4FE0048604FF41F0050
:100630008860FFF7DAFF4FF000602949086010BDBD
:1006400010B5002100200022214B5B6803F00C0153
:1006500021B1042906D0082928D107E0214B224CDA
:10066000236027E01F4B204C236023E0184B5B687E
:1006700003F47010164B5B6803F48032022303EB23
:10068000904022B9194B4343174C23600DE0104BA7
:100690005B6803F4003323B1144B4343124C2360D3
:1006A00003E0104B4343104C236003E00D4B0E4C12
:1006B000236000BF00BF064B5B68C3F303130C4C01
:1006C000E15C094B1B68CB40074C236010BD000068
:1006D00000100240002002400000FFF8FFFFF6FE7D
:1006E00008ED00E000127A000800002000093D003B
:1006F0000C000020F0B502464FF0E02674697669E0
:100700004FF47A77B6FBF7F606FB02F54FF0E026DA
:10071000B1690CE04FF0E026B069814202D2661860
:10072000361A00E00E1A3346AB4200D900E0F1E77A
:1007300000BFF0BD08B5002000908020ADF800009B
:1007400010208DF8030003208DF8020069466048F0
:1007500001F0E6FF08BD10B50121042002F09CFA6B
:10076000FFF7E8FF80215A4802F087F810BD08B56E
:10077000002000908020ADF8000048208DF8030094
:1007800003208DF802006946514801F0C9FF08BDF9
:1007900070B50025002424E000BF80214C4802F001
:1007A00052F80028F9D02820FFF7A4FF80214848FC
:1007B00002F049F801280DD100BF8021444802F021
:1007C00042F80128F9D0C4F1070101208840C0B2E5
:1007D000054304E0C4F10701012088408543601C03
:1007E000C4B2082CD8DB284670BD2DE9F041044680
:1007F000FFF7A0FF8021364802F041F8142001F0F5
:10080000F3FE8021324802F038F81E20FFF772FF15
:10081000FFF7ADFF1E20FFF76DFF80212C4802F08F
:1008200012F8002852D100BF8021294802F00BF8AD
:100830000028F9D000BF8021254802F004F80128E3
:10084000F9D0FFF7A5FF2070FFF7A2FF6070FFF758
:100850009FFFA070FFF79CFFE070FFF799FF2071EA
:10086000FFF768FF80211A4802F007F860782178C6
:1008700001EBC10202EB011100EB8106304606F0EC
:10088000C9FC0746134906F0AFFBA060E078A178E9
:1008900001EBC10202EB011100EB8106304606F0CC
:1008A000B9FC07460B4906F09FFBE06020786178B1
:1008B0000844A1780844E1780844C5B22079A842E8
:1008C00002D10120BDE8F0810020FBE70020F9E71C
:1008D000000801400000C84200B587B001214FF474
:1008E000017002F0D9F94FF4004002F039F9FF200D
:1008F000ADF8180000208DF81B0006A93F4801F054
:100900000FFF002001908DF808008DF809004FF4CA
:10091000602003900020049001208DF8140001A9AC
:10092000374803F0C4FB0121354803F0ECFB3448A1
:1009300003F00BFC00BF324803F00CFC0028FAD196
:100940002F4803F011FC00BF2D4803F012FC0028D3
:10095000FAD107B000BD10B5044605230122214697
:10096000274803F03CFC0121254803F00CFC00BFA4
:100970000221234803F078FD0028F9D0204803F035
:1009800095FC10BD2DE9F04104462046FFF7E3FF3A
:10099000074606F03FFC06461A4906F025FB0546C9
:1009A000194906F07FFCBDE8F0812DE9F0410746CA
:1009B0000C460025002605E03846FFF7CCFF05442D
:1009C000701CC6B2A642F7DBB5FBF4F080B2BDE8FE
:1009D000F0812DE9F04104460D4629462046FFF7F7
:1009E000E4FF804606F016FC0746064906F0FCFACE
:1009F0000646054906F056FCBDE8F08100080140B6
:100A00000024014000F07F453333534000B587B0E8
:100A100001214FF4017002F03FF94FF4004002F061
:100A20009FF80120ADF8180000208DF81B0006A9E2
:100A3000504801F075FE0220ADF8180048208DF8EE
:100A40001B0006A94B4801F06BFE002001908DF8B9
:100A500008008DF809004FF46020039000200490F6
:100A600001208DF8140001A9434803F020FB012167
:100A7000414803F048FB642001F0B6FD07B000BD1B
:100A800070B50024002509E00A210020FFF78DFF42
:100A90000444052001F0A8FD681CC5B20A2DF3DB53
:100AA0000A20B4FBF0F080B270BD70B5FFF7E8FF2C
:100AB0000546284606F0AEFB0646304906F094FA95
:100AC00004462F4906F0EEFB70BD70B5FFF7EDFF51
:100AD000054629462A4806F0E3FC0646294906F061
:100AE000E1FB0446294606F07FFA70BD10B50221ED
:100AF000204801F0A8FE10BD70B5002400250CE0D0
:100B0000FFF7E3FF0646214606F000FA04464FF4DD
:100B1000FA7001F069FD681CC5B20A2DF0DB1949B5
:100B2000204606F061FA184908600846006870BD62
:100B300070B5FFF7CAFF054613480168284606F05E
:100B400053FA04464FF07E51204606F077FB01D25F
:100B50004FF07E540B49204606F070FC00D2094C41
:100B60004FF07E51204606F09BFC0646074906F0F2
:100B700099FB70BD000801400024014000F07F4552
:100B800033335340000020411C0000209A9931412A
:100B900008B50121082002F07FF82020ADF8000000
:100BA00010208DF8030003208DF8020069460B48E1
:100BB00001F0B6FD08BD10B52021084801F05DFE2A
:100BC00010BD10B5FFF7E4FFFFF7F5FF10BD10B53E
:100BD0002021024801F053FE10BD0000000C01402E
:100BE00070B504460D4600260AE02146FE4803F093
:100BF0008DFD08B1012070BD012001F0F5FC761CCF
:100C0000AE42F2D30020F6E72DE9F041012000F0DA
:100C1000CBFC022000F0C8FC4FF4FA7001F0E4FCB9
:100C200000271FE00020F14908804FF48061EE4862
:100C300003F09DFDEEA1022000F093FDEEA1012046
:100C400000F08FFD00F0FCFE0823EEA20021084614
:100C500001F07DF900F0E2FE4FF47A7001F0C4FC7F
:100C6000781CC7B2012FDDDD41F27071E6A0FFF7FD
:100C7000B7FF70B1E5A1012000F073FD00F0E0FEC8
:100C80000823E1A20021084601F061F900F0C6FE48
:100C900013E0E2A1012000F064FD0823E3A200219B
:100CA000084601F054F900F0CBFE00F0B7FE4FF417
:100CB000FA7001F099FCBDE8F0810020CB49088072
:100CC0004FF48061C84803F052FDDAA1022000F021
:100CD00048FDDBA1012000F044FD00F0B1FE082337
:100CE000DAA20021084601F032F900F097FE4FF435
:100CF0007A7001F079FC0020BC4908804FF48061D3
:100D0000B94803F034FDD3A1022000F02AFDD5A19B
:100D1000012000F026FD00F093FE0823D5A200215B
:100D2000084601F014F900F079FE4FF4967001F0D6
:100D30005BFC0020AD4908804FF48061AA4803F0B5
:100D400016FDCFA1022000F00CFDD5A1012000F07E
:100D500008FD00F075FE0823D4A20021084601F02A
:100D6000F6F800F05BFE00240025002612E0D2A178
:100D70009D4803F0CBFC00B10124D3A19A4803F0B5
:100D8000C5FC00B101250CB105B107E00A2001F056
:100D90002BFC0A3642F210708642E8D300BF7CB1C9
:100DA00075B1CCA1012000F0DCFC00F049FE082365
:100DB00095A20021084601F0CAF800F02FFE12E0CB
:100DC000C8A1012000F0CDFC00F03AFE082397A254
:100DD0000021084601F0BBF800F020FE4FF4FA7045
:100DE00001F002FC67E70120C24908704FF4FA6085
:100DF00001F0FAFB00BF5EE710B500207B490880D8
:100E00004FF48061784803F0B2FCBB49022000F047
:100E1000A8FCBAA1012000F0A4FC00F011FE0823F8
:100E2000BAA20021084601F092F800F0F7FD41F265
:100E3000707175A0FFF7D4FE70B1B8A1012000F069
:100E400090FC00F0FDFD08236FA20021084601F090
:100E50007EF800F0E3FD12E0B5A1012000F081FC76
:100E6000082372A20021084601F071F800F0E8FDA5
:100E700000F0D4FD4FF4FA7001F0B6FB10BD40F65F
:100E8000B83001F0B1FB0020584908804FF4806170
:100E9000554803F06CFCABA1022000F062FCB4A149
:100EA000012000F05EFC00F0CBFD0823B5A200217C
:100EB000084601F04CF800F0B1FD4FF4FA5152A091
:100EC000FFF78EFE70B1B2A1012000F04AFC00F0E5
:100ED000B7FD08234CA20021084601F038F800F0C5
:100EE0009DFD12E0B0A1012000F03BFC08234FA2C1
:100EF0000021084601F02BF800F0A2FD00F08EFD65
:100F00004FF4FA7001F070FBB8E74FF47A7001F01B
:100F10006BFB0020354908804FF48061324803F0B4
:100F200026FCA749022000F01CFCA6A1012000F02D
:100F300018FC00F085FD0823AAA20021084601F054
:100F400006F800F06BFD41F270712FA0FFF748FE2C
:100F500070B1A9A1012000F004FC00F071FD08238C
:100F600029A20021084600F0F2FF00F057FD12E030
:100F7000A4A1012000F0F5FB08232CA200210846C3
:100F800000F0E5FF00F05CFD00F048FD4FF4FA7062
:100F900001F02AFB72E74FF47A7001F025FB002084
:100FA000124908804FF480610F4803F0E0FB98A1DC
:100FB000022000F0D6FBA5A1012000F0D2FB00F03A
:100FC0003FFD0823A9A20021084600F0C0FF00F061
:100FD00025FD41F270710CA0FFF702FE10B186A151
:100FE00001204BE158E100005804002026000020B9
:100FF00041540D0A000000004154B2E2CAD40D0A67
:1010000000000000415400004F4B00004154B2E288
:10101000CAD4D5FDB3A30D0A000000004154B2E2CA
:10102000CAD4CAA7B0DC0D0A000000004552524FD6
:101030005200000041542B5253540D0A000000008E
:10104000C4A3BFE9B8B4CEBB0D0A000041542B5273
:101050005354000041542B43574D4F44453D310DEF
:101060000A000000BFAAC6F4535441C4A3CABD0D70
:101070000A00000041542B43574D4F44453D310079
:1010800041542B43574A41503D224A4159222C2278
:10109000646164646164646164220D0A000000009C
:1010A000C1ACBDD3CDF8C2E70D0A000041542B43BB
:1010B000574A4150000000005749464920434F4ECF
:1010C0004E454354454400005749464920474F5434
:1010D00020495000CDF8C2E7C1ACBDD3B3C9B9A611
:1010E0000D0A0000CDF8C2E7C1ACBDD3CAA7B0DC81
:1010F0000D0A000020000020BCA50008C9E8D6C3E6
:10110000D3C3BBA7CAF4D0D40D0A000041542B4D61
:10111000515454555345524346470000C9E8D6C37D
:10112000D3C3BBA7CAF4D0D4B3C9B9A60D0A000073
:10113000C9E8D6C3D3C3BBA7CAF4D0D4CAA7B0DC0E
:101140000D0A000041542B4D515454434F4E4E3D17
:10115000302C226D717474732E6865636C6F7564C6
:10116000732E636F6D222C313838332C310D0A0009
:10117000C1ACBDD34F6E654E4554B7FECEF1C6F738
:101180000D0A000041542B4D515454434F4E4E0014
:101190004F6E654E4554B7FECEF1C6F7C1ACBDD318
:1011A000B3C9B9A60D0A00004F6E654E4554B7FE8F
:1011B000CEF1C6F7C1ACBDD3CAA7B0DC0D0A0000A2
:1011C0006CA60008B6A9D4C4A1B0C9E8B1B8CAF4E5
:1011D000D0D4C9CFB1A8CFECD3A6A1B1D6F7CCE279
:1011E0000D0A000041542B4D5154545355423A724C
:1011F00065706C7900000000B6A9D4C4B3C9B9A663
:101200000D0A0000B6A9D4C4CAA7B0DC0D0A0000BC
:1012100041542B4D5154545355423D302C2224738C
:1012200079732F48756D6B6D324638324D2F64657A
:101230006D6F312F7468696E672F70726F70657291
:1012400074792F736574222C300D0A00B6A9D4C4AA
:10125000A1B0C9E8B1B8CAF4D0D4C9E8D6C3C7EBC5
:10126000C7F3A1B1D6F7CCE20D0A000041542B4DD3
:101270005154545355423A736574000000F071FAAA
:1012800000F0DEFB0823AFF280220021084600F0C8
:101290005EFE00F0C3FB14E0AFF29801012000F005
:1012A00060FA0823AFF27C220021084600F04FFECE
:1012B00000F0C6FB00F0B2FB4FF4FA7001F094F9B5
:1012C000DCE501206F4908704FF4FA6001F08CF9F9
:1012D00000BFD3E52DE9FF4FEFB00C4691469A468B
:1012E000DDF8F0B17D9805F0E5FD05460E46204697
:1012F00005F0E0FD074688466F9805F0DBFDCDE977
:101300000C017E9802AAA2E8800FCDE908560A9047
:101310000C985D4ACDE900014FF480712FA803F0CD
:10132000D9F82FA803F004FA80B22E90574A8021F2
:101330000EA82E9B03F0CEF80020554908804FF4EC
:101340008061544803F013FA0EA9022000F009FA54
:1013500051A1012000F005FA41F2707152A0FFF78F
:101360003FFC20B151A1012000F0FBF90AE054A19B
:10137000012000F0F6F94FF4FA7001F035F973B07E
:10138000BDE8F08F0020424908804FF48061414859
:1013900003F0EDF92FA9022000F0E3F94DA101209F
:1013A00000F0DFF941F27071AFF2A430FFF718FCE2
:1013B00020B14CA1012000F0D4F908E04CA101209B
:1013C00000F0CFF94FF4FA7001F00EF9D7E70020E2
:1013D0002F4908804FF480612E4803F0C8F900BF00
:1013E000CDE770B50546FF2629462A4803F08EF959
:1013F000002844D041A1012000F0B3F92549022082
:1014000000F0AFF92946234803F080F90446002C88
:101410002CD0284603F08CF904443FA1204603F069
:1014200075F908B1002621E03CA1204603F06EF9D1
:1014300008B101261AE03AA1204603F067F908B185
:10144000022613E037A1204603F060F908B1032615
:101450000CE035A1204603F059F908B1042605E057
:1014600032A1204603F052F900B1052600200849B8
:1014700008804FF48061074803F079F900BF3046D7
:1014800070BD000021000020F8A60008B0A60008EA
:101490002600002058040020D7BCB1B8B7A2CBCD9D
:1014A000CAFDBEDD0D0A00003E000000D7BCB1B889
:1014B000B7A2CBCDCAFDBEDDB3C9B9A60D0A0000E7
:1014C000D7BCB1B8B7A2CBCDCAFDBEDDCAA7B0DCD0
:1014D0000D0A0000D5FDD4DAB7A2CBCDCAFDBEDD22
:1014E0000D0A0000B7A2CBCDB3C9B9A60D0A000002
:1014F000B7A2CBCDCAA7B0DC0D0A0000B3C9B9A60C
:10150000BDD3CAD5B5BD4F6E654E4554CFC2B7A247
:10151000CAFDBEDD0D0A00003000000031000000F1
:1015200032000000330000003400000035000000ED
:1015300010B5FFF7D1F910BD10B50A210620FFF74D
:1015400034FA10BD10B50A210620FFF742FA10BD8B
:1015500070B5FFF7F1FF05466420684340F6FF7160
:1015600090FBF1F0C0F16400C4B2204670BD0000F1
:1015700008B50121082001F08FFB0220ADF8000022
:1015800048208DF803006946064801F0C9F808BDF7
:1015900010B50221034801F056F908B9012010BD29
:1015A0000020FCE7000C014010B586B00446012C79
:1015B00051D10121800301F06FFB0121042001F0D2
:1015C0006BFB18208DF817006002ADF814000320A3
:1015D0008DF8160005A9B04801F0A2F848208DF852
:1015E0001700A002ADF8140003208DF8160005A91D
:1015F000A94801F095F84FF4E13001900020ADF8D2
:1016000010000C20ADF80E000020ADF80C00ADF875
:101610000A00ADF8080001A9A04801F0E4FB01228E
:1016200040F225519D4801F076FC4FF4A06001F096
:101630009BFD25208DF8000001208DF803008DF81A
:1016400001008DF80200684601F093FD01219348E6
:1016500001F055FC53E0022C51D10121480401F066
:1016600028FB0121042001F017FB18208DF817003A
:101670000420ADF8140003208DF8160005A9864853
:1016800001F04EF848208DF817000820ADF814003E
:1016900003208DF8160005A97F4801F041F84FF4AA
:1016A000E13001900020ADF810000C20ADF80E00E4
:1016B0000020ADF80C00ADF80A00ADF8080001A953
:1016C000774801F090FB012240F22551744801F067
:1016D00022FC4FF4A06001F047FD26208DF80000A9
:1016E00001208DF803008DF801008DF80200684696
:1016F00001F03FFD01216A4801F001FC00BF06B086
:1017000010BD70B504460D46012C0BD12946634827
:1017100001F062FC00BF8021604801F0CBFC002892
:10172000F9D00CE0022C0AD129465D4801F054FCA6
:1017300000BF80215A4801F0BDFC0028F9D070BDDF
:101740002DE9F04107460D461646002405E0295DC7
:101750003846FFF7D6FF601C84B2B442F7DBBDE821
:10176000F08170B506460C46002505E0615D304607
:10177000FFF7C7FF681C85B2605D0028F6D170BD19
:1017800010B50246012000E050430B1EA1F10101FB
:10179000FAD110BD2DE9F04107460E46144600254A
:1017A00013E0601B411E0A20FFF7EAFFB6FBF0F0D2
:1017B0000A21B0FBF1F201FB120000F130084146B2
:1017C0003846FFF79EFF681C85B2A542E9DBBDE8FD
:1017D000F0810FB410B59AB004461EA8009001A87D
:1017E000009A1D9902F064FE0020009001A9204695
:1017F000FFF7B7FF1AB010BC5DF814FB10B540F24C
:101800002551264801F06CFCF0B1244801F0E8FBBA
:10181000C4B2244801880088401C224A1080224813
:1018200044541046008840F2FF31884202DB002019
:10183000114608800A2C02D101201C49087040F290
:101840002551164801F076FC10BD10B540F2255127
:10185000134801F045FCF0B1114801F0C1FBC4B2DE
:10186000134801880088401C114A108011484454D4
:101870001046008840F2FF31884202DB002011460A
:1018800008800A2C02D101200B49087040F2255132
:10189000034801F04FFC10BD000801400038014032
:1018A00000440040220000205800002024000020B6
:1018B00026000020580400202800002010B504460F
:1018C00022464FF48071F74800F0DBFF10BD10B5E1
:1018D000044622464FF40071F24800F0D2FF10BDDA
:1018E00038B5002406E0002500E06D1CB5F57A7FD0
:1018F000FBD3641CB4F57A7FF5D30121082001F0F5
:10190000CBF914208DF8030003208DF802004FF46A
:101910008070ADF800006946E24800F001FF4FF426
:101920000070ADF800006946DE4800F0F9FE0120C5
:10193000FFF7C4FF0120FFF7CAFF38BD10B5012033
:10194000FFF7C5FF0120FFF7B9FF0020FFF7BFFF3A
:101950000020FFF7B3FF10BD10B50020FFF7B7FF61
:101960000120FFF7ABFF0120FFF7B1FF10BD70B5FD
:101970000546002411E080212141294009B10121BF
:1019800000E000210846FFF7A2FF0120FFF796FFC5
:101990000020FFF793FF601CC4B2082CEBDB012092
:1019A000FFF78CFF0020FFF789FF70BD10B50446DC
:1019B000FFF7C4FF7820FFF7DAFF0020FFF7D7FF1B
:1019C0002046FFF7D4FFFFF7C7FF10BD70B50546EF
:1019D0000E46FFF7B3FF7820FFF7C9FF4020FFF75F
:1019E000C6FF002404E0285DFFF7C1FF601CC4B2FD
:1019F000B442F8DBFFF7B0FF70BD70B505460C468A
:101A000045F0B000FFF7D2FF102141EA1410FFF7B4
:101A1000CDFF04F00F00FFF7C9FF70BD10B5002423
:101A20000BE000212046FFF7E8FF9F4901EBC410BF
:101A30008021FFF7CBFF601CC4B2082CF1DB10BD86
:101A400000200CE0002106E00022974B03EBC013BE
:101A50005A544A1CD1B28029F6DB421CD0B2082865
:101A6000F0DB704710B5FFF73BFFAE20FFF79EFF9E
:101A7000D520FFF79BFF8020FFF798FFA820FFF7F6
:101A800095FF3F20FFF792FFD320FFF78FFF002045
:101A9000FFF78CFF4020FFF789FFA120FFF786FFAB
:101AA000C820FFF783FFDA20FFF780FF1220FFF73F
:101AB0007DFF8120FFF77AFFCF20FFF777FFD92046
:101AC000FFF774FFF120FFF771FFDB20FFF76EFFD8
:101AD0003020FFF76BFFA420FFF768FFA620FFF779
:101AE00065FF8D20FFF762FF1420FFF75FFFAF2037
:101AF000FFF75CFFFFF7A4FFFFF790FF10BD10B5E5
:101B0000AE20FFF753FF10BD10B50246012000E0E4
:101B100050430B1EA1F10101FAD110BD2DE9F04394
:101B200005460C461F46079E4FF0000C00216B1E19
:101B300034E032F91100B04201DD012000E0002064
:101B400032F91380B04502DD4FF0010801E04FF09B
:101B5000000840451FD034F9130034F91180A0EB80
:101B6000080032F91180A6EB080800FB08F032F9F2
:101B7000138032F91190A8EB090890FBF8F034F9C2
:101B800011804044B84206DDBCF1000F01D10120B4
:101B900000E0002084460B46481C01B2A942C8DB85
:101BA0000CF0FF00BDE8F0832DE9FF4F87B08B46B6
:101BB00014469946079804F092FE05460E4658468C
:101BC00004F08DFE07462A46334604F0E1FA374A10
:101BD000374BCDE9000104F0CDFC0022354BCDE9B7
:101BE000020104F0E3FECDE9040104F01BFE0FFA4C
:101BF00080FA4C4507DAA2450BDBCA4509DC012017
:101C00000BB0BDE8F08FA24501DACA4501DC012026
:101C1000F6E70020F4E72DE9F04706460D461746A3
:101C200098462846E91705EB5171C9100FFA81F95A
:101C300005EB0801481EC11700EB5171C910491C82
:101C40000FFA81FA002D07DAA9F101000FFA80F9E5
:101C5000AAF101000FFA80FA4C4614E0002E10DBC6
:101C60007F2E0EDC002C0CDB072C0ADCF1B2E0B27C
:101C7000FFF7C3FE0C4901EBC41188193946FFF781
:101C8000A5FE601C04B25445E8DBBDE8F0872DE9F1
:101C9000F04304460D4616461F46284643E02246BA
:101CA0003CE00000000C0140580800201F85EB516B
:101CB000B81E094000806640002A2DDB7F2A2BDCFD
:101CC000002829DB3F2827DC4FEAE07C00EB5C7C26
:101CD0004FEAEC0CDFF85C8408EBCC1C1CF802C06B
:101CE00003464FEAE07800EB58784FEAE808A0EBAB
:101CF000C8094FF0010808FA09F82CEA080C014657
:101D00004FEAE07800EB58784FEAE808DFF82494CF
:101D100009EBC81808F802C0511C0AB2A119914277
:101D2000CADC411C08B2E9198142B8DCBDE8F08385
:101D3000002011E000210BE0FE4A02EBC012525CD1
:101D400082F0FF02FB4B03EBC0135A544A1CD1B282
:101D50008029F1DB421CD0B20828EBDB70472DE96B
:101D6000F04304460D4616461F46284638E02246F4
:101D700031E0002A2DDB7F2A2BDC002829DB3F28DD
:101D800027DC4FEAE07C00EB5C7C4FEAEC0CDFF8F0
:101D9000A48308EBCC1C1CF802C003464FEAE07891
:101DA00000EB58784FEAE808A0EBC8094FF00108AB
:101DB00008FA09F88CEA080C01464FEAE07800EBD3
:101DC00058784FEAE808DFF86C9309EBC81808F870
:101DD00002C0511C0AB2A1199142CADC411C08B2CE
:101DE000E9198142C3DCBDE8F0832DE9FF4F80464D
:101DF0000E469146DDF834B0002500244A463146AF
:101E00004046039BFFF743FF00BF5EE0002558E01C
:101E100008EB0500002852DB08EB05007F284EDCAC
:101E20003046F11706EB5171C9100FB2F11706EBEE
:101E30005171C910A6EBC10A002E05DA781E07B24F
:101E40000AF108000FFA80FA3819002817DB381950
:101E5000072814DC3819B74901EBC01008EB05015D
:101E6000405C04FB09511BF8011001FA0AF1084318
:101E70003919B04A02EBC11108EB05028854381930
:101E8000401C00281BDB3819401C072817DC3819B8
:101E9000401CA84901EBC01008EB0501405C04FBA5
:101EA00009511BF80110CAF1080211410843391900
:101EB000491CA04A02EBC11108EB05028854681CBA
:101EC000C5B24D45A4DB601CC4B20399481EC117BE
:101ED00000EB5171012202EBE101A14296DCBDE869
:101EE000FF8FF8B506460F4614461D46082D0CD147
:101EF000A4F12000904901EB00101023082239467C
:101F000000903046FFF771FF20E0062D0ED1A4F1BE
:101F1000200000EB4000894901EB40000823062225
:101F2000394600903046FFF760FF0FE00C2D0DD1D1
:101F3000A4F1200000EBC000814901EB80001823D0
:101F40000C22394600903046FFF74FFFF8BD2DE9CF
:101F5000F0410646884615461F46002409E02A5DE2
:101F600004FB076108B23B464146FFF7BAFF601C1D
:101F7000C4B2285D0028F2D1BDE8F0812DE9F04718
:101F80000646894617461D46DDF82080002417E0E6
:101F9000281B411E0A20FFF7B7FDB7FBF0F00A210E
:101FA000B0FBF1F201FB120000F1300A04FB086102
:101FB00008B2434652464946FFF793FF601CC4B23D
:101FC000AC42E5DBBDE8F0872DE9F04F80468A465C
:101FD00015461E46DDF82490002D07DB4B462B22CC
:101FE00051464046FFF77DFF2F4606E04B462D2227
:101FF00051464046FFF775FF6F42002418E0301B42
:10200000411E0A20FFF780FDB7FBF0F00A21B0FB6C
:10201000F1F201FB120000F1300B611C01FB0981A0
:1020200008B24B465A465146FFF75BFF601CC4B2EC
:10203000B442E4DBBDE8F08F2DE9F04706468A465E
:1020400091461F46DDF82080002421E0381B411E08
:102050001020FFF759FDB9FBF0F000F00F050A2D35
:102060000ADA05F13001CAB204FB086108B243463E
:102070005146FFF736FF09E005F13701CAB204FB0C
:10208000086108B243465146FFF72BFF601CC4B2FB
:10209000BC42DBDBBDE8F0872DE9F0470646894608
:1020A00017461D46DDF82080002414E0281B411E41
:1020B0000220FFF729FDB7FBF0F000F0010000F16E
:1020C000300A04FB086108B2434652464946FFF70E
:1020D00008FF601CC4B2AC42E8DBBDE8F0872DE924
:1020E000FF5F86B0074614461D46DDF85080169EF9
:1020F000002213462046294604F056FD06D83346F2
:102100002B2238460799FFF7ECFE07E033462D22D5
:1021100038460799FFF7E5FE85F000452046294639
:1021200004F0B0FB8246504604F0F0FB22462B46FA
:1021300008E000005808002082760008727C000841
:10214000AC7E0008CDE9040104F0BEFD04460D4656
:102150000A201599FFF7D8FC8146484604F0D6FBC3
:1021600022462B46CDE9000104F020FCCDE9020116
:1021700004F0CEF8CDE9040104F084FB8346BBFBF8
:10218000F9F08244B91908B24346524600960799BD
:10219000FFF7F4FE08F1010101FB067108B23346B6
:1021A0002E220799FFF79DFE08F1020101FB06713F
:1021B00008B200965A46159B0799FFF7DFFE0AB052
:1021C000BDE8F09F2DE9FC4780468946164600276A
:1021D0000020019000253AE0705D01A9C855781CE7
:1021E000C7B2022F31DB002700240CE0C4EBC4018E
:1021F00001EB81014B4A881801A902F0DBFA00B912
:102200000CE0601CC4B2C4EBC40101EB8101454A7F
:10221000881845A102F0CEFA0028E7D100BFC4EB30
:10222000C40000EB80003F490844C01C05F1010ACE
:102230000AEBDA714910491E08EB0111009008B24F
:1022400010231A464946FFF7D0FD681CC5B2705DE1
:102250000028C1D1BDE8FC872DE9FC4780468946AE
:10226000164600270020019000253CE0705D01A982
:10227000C855781CC7B2022F33DB002700240CE0BE
:1022800004EBC40101EB4101284A881801A902F0BE
:1022900091FA00B90CE0601CC4B204EBC40101EB7C
:1022A0004101224A881820A102F084FA0028E7D1CF
:1022B00000BF04EBC40000EB40001C490844C01CF4
:1022C00005F1010A0AEBDA714910491E01EB4101DF
:1022D00008EB8101009008B20C231A464946FFF72B
:1022E00084FD681CC5B2705D0028BFD1BDE8FC87C5
:1022F0000FB470B5C2B005460E4614464AA8019008
:1023000002A8019A499902F0D3F8002001902346CF
:1023100002AA31462846FFF71AFE42B070BC5DF8AB
:1023200014FB0000088C000800000000C6910008A3
:1023300000B589B0012140F6040000F0ADFC4FF477
:102340001060ADF8200018208DF8230003208DF8D0
:10235000220008A9874800F0E3F94720ADF81400EF
:102360000020ADF81600FF20ADF818000020ADF8F1
:102370001A0005A9804801F039F86020ADF8040082
:102380000120ADF806000020ADF80C0001A97A4844
:1023900001F069F801A9784801F03FF90821764871
:1023A00001F0B0FC0821744801F0CBFC0121724817
:1023B00001F078FC0121704801F074FB01216E48A6
:1023C00001F07CFB09B000BD00B589B001210420FB
:1023D00000F06FFC0121082000F05EFC4020ADF809
:1023E000200018208DF8230003208DF8220008A972
:1023F000624800F095F94720ADF814000020ADF8D0
:102400001600FF20ADF818000020ADF81A0005A94D
:102410005B4800F0EBFF6020ADF804000120ADF850
:1024200006000020ADF80C0001A9554801F01BF88A
:102430000821534801F066FC0121514801F032FCAB
:1024400001214F4801F02EFB09B000BD70B50446D4
:102450000E4615464B4804704B4806704B480570B5
:102460002146454801F0B6FD3146454801F0B2FD30
:102470002946414801F0B4FD70BD10B50022114657
:102480001046FFF7E3FF10BD10B5FFF751FFFFF750
:102490009BFFFFF7F2FF10BD3A480078002807DCE9
:1024A00039480078002803DC38480078002801DD2E
:1024B000012070470020FCE710B500221146FF20E4
:1024C000FFF7C4FF10BD10B50022FF211046FFF733
:1024D000BDFF10BD10B5FF2200210846FFF7B6FF73
:1024E00010BD10B5FF2211461046FFF7AFFF10BD1B
:1024F00010B52748007807282FD2DFE800F0040A3B
:1025000010161C22280000221146FF20FFF79EFF14
:1025100023E00022FF211046FFF798FF1DE0FF2275
:1025200000210846FFF792FF17E00022FF2108462E
:10253000FFF78CFF11E0FF2211460020FFF786FF16
:102540000BE0FF2200211046FFF780FF05E0FF228D
:1025500011461046FFF77AFF00BF00BF0C48007815
:10256000401C0B49087008460078072801DB002052
:10257000087010BD00080140002C0140000C014013
:1025800000080040290000202A0000202B00002025
:102590002C00002030B51E4800684FF47A72B0FB62
:1025A000F2F1B1F1807F00D31DE021F07F40401EA9
:1025B0004FF0E022506150170F22002807DA13076E
:1025C0001D0E144B00F00F04241F1D5503E01307CC
:1025D0001C0E114B1C5400BF00204FF0E0229061F4
:1025E0000720106100BF30BD01B50C49009808609C
:1025F00000BF0A4800680028FBD108BD07480068F2
:1026000020B106480068401E044908607047000079
:102610000800002018ED00E000E400E03000002099
:102620000948804709480047FEE7FEE7FEE7FEE766
:10263000FEE7FEE7FEE7FEE7FEE7FEE704480549A2
:10264000054A064B70470000F3050008ED0000083E
:10265000B80C0020B8120020B80E0020B80E0020E0
:1026600010B50446CC48844208D10121042000F072
:102670002DFB0021042000F029FB46E0C7488442DE
:1026800008D10121082000F021FB0021082000F0E2
:102690001DFB3AE0C248844208D10121102000F01D
:1026A00015FB0021102000F011FB2EE0BD488442F4
:1026B00008D10121202000F009FB0021202000F09A
:1026C00005FB22E0B848844208D10121402000F0F7
:1026D000FDFA0021402000F0F9FA16E0B3488442E8
:1026E00008D10121802000F0F1FA0021802000F0C3
:1026F000EDFA0AE0AE48844207D10121801500F0CE
:10270000E5FA0021A01500F0E1FA10BD10B5012195
:10271000084600F0DBFA0021012000F0D7FA10BDD6
:102720002DE9F04102460025002600200023002468
:10273000002791F803C00CF00F0591F803C00CF0CE
:10274000100CBCF1000F03D091F802C04CEA050553
:1027500091F800C0BCF1000F31D0146800202BE0CC
:102760004FF0010C0CFA00F3B1F800C00CEA0306BC
:102770009E4220D183004FF00F0C0CFA03F7BC43AC
:1027800005FA03FC4CEA040491F803C0BCF1280FDD
:1027900006D14FF0010C0CFA00FCC2F814C00AE09C
:1027A00091F803C0BCF1480F05D14FF0010C0CFAB1
:1027B00000FCC2F810C0401C0828D1D31460B1F846
:1027C00000C0BCF1FF0F34DD546800202EE000F1A2
:1027D000080C4FF0010808FA0CF3B1F800C00CEA3D
:1027E00003069E4221D183004FF00F0C0CFA03F731
:1027F000BC4305FA03FC4CEA040491F803C0BCF1A5
:10280000280F05D100F1080C08FA0CF8C2F8148062
:1028100091F803C0BCF1480F07D100F1080C4FF04C
:10282000010808FA0CF8C2F81080401C0828CED322
:102830005460BDE8F0814FF6FF7101800221817084
:102840000421C17070470246002093680B400BB111
:10285000012000E0002070470146886880B2704780
:1028600002460020D3680B400BB1012000E000209D
:1028700070470146C86880B2704701617047416186
:1028800070470AB1016100E041617047C160704763
:102890004FF480320A438261816182618269826978
:1028A000704702460020434B18684FF6807318406B
:1028B00040EA021008433F4B186070473E49C86128
:1028C0007047F0B50A46002300240021002500F0DF
:1028D0000046B6F1004F02D1364EF16901E0354EA7
:1028E0007168C0F3034583B200F44016B6F5401F8B
:1028F00008D121F070612F4E766826F070662D4F5A
:102900007E6012E000F48016B6F5801F06D1032623
:1029100006FA05F4A14341F0706106E0460D360168
:1029200003FA06F6B14341F0706122B1460D36015B
:1029300003FA06F6314300F00046B6F1004F02D12B
:102940001C4EF16101E01B4E7160F0BD30B50022FC
:102950008B071C0F0F2303FA04F2164B08338C105D
:1029600053F824309343134C08348D1044F8253029
:1029700023468C1053F824308C07240F00FA04F4FB
:1029800023430C4C08348D1044F8253030BD0A49DF
:10299000DC3108607047000000080140000C014075
:1029A000001001400014014000180140001C0140CB
:1029B000002001400000014000002042DF48006884
:1029C00040F00100DD49086008464068DC490840E5
:1029D000DA49486008460068DA490840D749086083
:1029E0000846006820F4802008600846406820F40B
:1029F000FE0048604FF41F0088607047CF490968A7
:102A000021F48031CD4A11601146096821F48021FA
:102A10001160B0F5803F03D0B0F5802F0ED106E0F5
:102A2000C649096841F48031C44A116007E0C349CE
:102A3000096841F4A021C14A116000E000BF00BF55
:102A4000704710B501460022002300204A11012AD8
:102A500002D1BA4C236806E0022A02D1B74C236A9D
:102A600001E0B64C636A01F01F02012494401C404F
:102A70000CB1012000E0002010BD38B5002000900E
:102A80000024002500BF3120FFF7DBFF054600983A
:102A9000401C00900098B0F5A06F01D0002DF2D03E
:102AA0003120FFF7CEFF08B1012400E000242046CA
:102AB00038BD01460020A14A106820F0F80040EA25
:102AC000C10010607047A0490860704702460020AE
:102AD0009A4B586820F47C1042EA01031843974B44
:102AE0005860704798490866704701460020934A2D
:102AF000506820F003000843506070478F484068DA
:102B000000F00C007047014600208C4A506820F00D
:102B1000F00008435060704701460020874A506823
:102B200020F4E06008435060704701460020834A6B
:102B3000506820F4605040EAC1005060704729B1ED
:102B40007E4A527A02437D4B5A7204E07B4A527AA3
:102B500082437A4B5A7270477B49D831086070477C
:102B600001460020754A506820F4404008435060F8
:102B700070470021714A20321170704A82F820108B
:102B8000012802D004280AD104E001216B4A203236
:102B9000117005E00521694A2032117000E000BF84
:102BA00000BF70476949086070476449096A01437A
:102BB000624A11627047654944390860704730B510
:102BC00000210022002400235C4D6D6805F00C01FB
:102BD00021B1042905D0082923D105E05C4D056009
:102BE00022E05B4D05601FE0544D6D6805F47012E6
:102BF000524D6D6805F48034022505EB92421CB9F4
:102C0000544D554305600BE04C4D6D6805F400359F
:102C10001DB1504D5543056002E04D4D55430560D3
:102C200002E04B4D056000BF00BF444D6D6805F0EC
:102C3000F0010909484D6B5C0568DD4045603F4D7A
:102C40006D6805F4E061090A434D6B5C4568DD4041
:102C500085603A4D6D6805F46051C90A3E4D6B5C64
:102C60004568DD40C560354D6D6805F44041890B10
:102C70003A4D6B5CC568B5FBF3F5056130BD29B114
:102C80002E4A526902432D4B5A6104E02B4A526985
:102C900082432A4B5A61704729B1284A92690243FC
:102CA000264B9A6104E0254A92698243234B9A613C
:102CB000704729B1214AD2690243204BDA6104E00E
:102CC0001E4AD26982431D4BDA61704729B11B4A03
:102CD000D2680243194BDA6004E0184AD268824392
:102CE000164BDA60704729B1144A12690243134B3C
:102CF0001A6104E0114A12698243104B1A6170474D
:102D000012494039086070470F49C86470470B4941
:102D1000C87170470948406A40F0807007494862AE
:102D2000704701460020054A92680A400AB1012016
:102D300000E000207047014988727047001002408F
:102D40000000FFF8FFFFF6FE00004242800442420E
:102D500000127A0000093D003400002044000020E9
:102D600010B50446FB48844209D101218803FFF7CE
:102D7000ADFF00214FF48040FFF7A8FF32E0F64896
:102D8000844209D101214804FFF7ADFF00214FF42F
:102D90000030FFF7A8FF25E0F048844209D1012167
:102DA0008804FFF7A0FF00214FF48020FFF79BFF6E
:102DB00018E0EB48844209D10121C804FFF793FFD2
:102DC00000214FF40020FFF78EFF0BE0E54884421E
:102DD00008D101210805FFF786FF00214FF480107C
:102DE000FFF781FF10BD2DE9F04786B005460E467E
:102DF0000024A24600BFA1460027B08900B100BF51
:102E00002F462C8A4CF6FF700440F08804432C8235
:102E1000AC894EF6F3100440B088318908437189BB
:102E200008430443AC81AC8A4FF6FF400440B089AC
:102E30000443AC8201A8FFF7C2FEC648874202D114
:102E4000DDF810A001E0DDF80CA0A88900F4004036
:102E500040B10AEBCA0000EB0A1031684900B0FB30
:102E6000F1F807E00AEBCA0000EB0A1031688900AC
:102E7000B0FBF1F86420B8FBF0F0040120096421F4
:102E800001FB1089A88900F4004040B1322000EB1A
:102E9000C900B0FBF1F000F00700044308E0322065
:102EA00000EB09106421B0FBF1F000F00F000443C7
:102EB0002C8106B0BDE8F0874FF416510160002167
:102EC0008180C18001810C21418100218181704775
:102ED00010B502460020108A4FF2FF0318400B88FD
:102EE0004C8823438C882343CC8823431843108287
:102EF00010BD0021018041808180C180704721B1D7
:102F0000828942F40052828104E082894DF6FF7387
:102F10001A4082817047F0B5034600240026002540
:102F2000002040F66A17B94200D100BF1846C1F32D
:102F3000421401F01F06012707FA06F5012C01D102
:102F40000C3004E0022C01D1103000E014301AB132
:102F500007682F43076002E00768AF430760F0BDD2
:102F60001AB1838A0B43838202E0838A8B43838274
:102F70007047028A4FF6F0731A400282028A0A43AF
:102F80000282704782894FF2FF731A4082818289E0
:102F90000A438281704721B1828942F00202828114
:102FA00004E082894FF6FD731A4082817047028ADD
:102FB0004FF6DF731A400282028A0A430282704788
:102FC00021B1028A42F48042028204E0028A4BF676
:102FD000FF731A4002827047C1F308028280704773
:102FE00001468888C0F308007047818941F00101DB
:102FF00081817047028BD2B20283028B42EA0122A6
:1030000002837047028B02F47F420283028B0A43E1
:103010000283704721B1828A42F02002828204E05A
:10302000828A4FF6DF731A408282704721B1828A0A
:1030300042F01002828204E0828A4FF6EF731A4057
:103040008282704721B1828A42F00802828204E0C3
:10305000828A4FF6F7731A408282704721B18289C3
:1030600042F40042828103E08289C2F30E0282812F
:10307000704721B1828A42F40062828204E0828A2F
:103080004FF2FF731A4082827047828A4FF6FB73B9
:103090001A408282828A0A438282704721B1828AE0
:1030A00042F00202828204E0828A4FF6FD731A40E7
:1030B0008282704702460020B1F5007F00D100BF38
:1030C00013880B400BB1012000E00020704701F491
:1030D0000072B2F5007F00D100BFCA430280704782
:1030E00070B50246002400230025002040F66A1631
:1030F000B14200D100BFC1F3421501F01F03012608
:1031000006FA03F3012D02D19689334006E0022D21
:1031100002D1168A334001E0968A33400C12012610
:1031200006FA04F41688344013B10CB1012000E013
:10313000002070BD10B50022002340F66A14A142A1
:1031400000D100BF0A1201249440A3B2DC430480E2
:1031500010BD00000038014000440040004800401D
:10316000004C00400050004031490143314A116099
:10317000704770B5002100230F22C47804B32D4C92
:10318000246804F4E064C4F5E064210AC1F1040396
:10319000CA40447804FA03F18478144021430901B9
:1031A000254C0678A155047804F01F050124AC4095
:1031B00005786D11AD0005F1E025C5F8004109E085
:1031C000047804F01F050124AC401C4D06787611EC
:1031D00045F8264070BD1A4A0A400243154B1B1F92
:1031E0001A60704739B1134A121D12680243114B1D
:1031F0001B1D1A6006E00F4A121D126882430D4B18
:103200001B1D1A607047042808D14FF0E02109699E
:1032100041F004014FF0E022116107E04FF0E0219E
:10322000096921F004014FF0E022116170470000AC
:103230000000FA050CED00E000E400E080E100E0B1
:1032400080FFFF1F10B50446FE48844208D10121CB
:10325000C014FFF73BFD0021E014FFF737FDC4E089
:10326000B4F1804F08D101210846FFF73CFD002151
:103270000120FFF738FDB8E0F348844208D101216E
:103280000220FFF730FD00210220FFF72CFDACE00B
:10329000EE48844208D101210420FFF724FD0021DB
:1032A0000420FFF720FDA0E0E948844208D1012175
:1032B0000820FFF718FD00210820FFF714FD94E017
:1032C000E448844208D101211020FFF70CFD0021C1
:1032D0001020FFF708FD88E0DF48844208D1012173
:1032E0002020FFF700FD00212020FFF7FCFC7CE000
:1032F000DA48844208D101214014FFF7E7FC00219D
:103300006014FFF7E3FC70E0D548844209D1012145
:10331000C804FFF7DBFC00214FF40020FFF7D6FCC8
:1033200063E0D048844209D101210805FFF7CEFCB3
:1033300000214FF48010FFF7C9FC56E0CA488442D0
:1033400009D101214805FFF7C1FC00214FF400100D
:10335000FFF7BCFC49E0C548844208D10121402068
:10336000FFF7C1FC00214020FFF7BDFC3DE0C04855
:10337000844208D101218020FFF7B5FC0021802084
:10338000FFF7B1FC31E0BB48844208D10121801530
:10339000FFF7A9FC0021A015FFF7A5FC25E0B64822
:1033A000844209D101210804FFF790FC00214FF469
:1033B0008030FFF78BFC18E0B048844209D101212E
:1033C0004804FFF783FC00214FF40030FFF77EFC38
:1033D0000BE0AB48844208D101218804FFF776FC5A
:1033E00000214FF48020FFF771FC10BD00220288FD
:1033F000944B98420ED0994B98420BD0B0F1804F2D
:1034000008D0914B984205D0904B984202D0904BF7
:10341000984204D14FF68F731A404B881A438D4B54
:10342000984207D08C4B984204D04FF6FF431A4085
:10343000CB881A4302808B8883850B880385814B58
:1034400098420BD0854B984208D08B4B984205D0C0
:103450008A4B984202D08A4B984201D10B7A03865C
:1034600001238382704770B5002400220023058C5D
:103470004FF6FE7635400584028C8388048B4FF628
:103480008F752C40B51E2C400D882C43751E2A408C
:103490000D892A434D882A436A4DA8420BD06F4DAF
:1034A000A84208D0744DA84205D0744DA84202D05D
:1034B000734DA84213D14FF6F7752A404D892A4320
:1034C0004FF6FB752A408D882A434FF6FF652B4047
:1034D0004FF6FF552B408D892B43CD892B4383809D
:1034E0000483CD888586028470BD70B500240022D7
:1034F0000023058C4FF6EF7635400584028C8388D7
:10350000048B48F6FF752C404FF6FF452C400D8884
:103510004FF6FF7606EA05252C434FF6DF752A4065
:103520000D8906EA05152A434D8806EA05152A4342
:10353000444DA84202D0494DA8421DD14FF67F7597
:103540002A404D894FF6FF7606EA05152A434FF6C5
:10355000BF752A408D8806EA05152A434FF6FF35C8
:103560002B404FF2FF752B408D8906EA85052B43D2
:10357000CD8906EA85052B4383800483CD880587A2
:10358000028470BD70B5002400220023058C4FF624
:10359000FF6635400584028C8388848B4FF68F75D7
:1035A0002C404FF6FC752C400D882C434FF6FF55F0
:1035B0002A400D894FF6FF7606EA05252A434D88F5
:1035C00006EA05252A431F4DA84202D0234DA842F2
:1035D0001DD14FF2FF752A404D894FF6FF7606EA5E
:1035E00005252A434FF6FF352A408D8806EA052532
:1035F0002A434EF6FF752B404DF6FF752B408D8903
:1036000006EA05152B43CD8906EA05152B43838071
:103610008483CD888587028470BD70B50022002325
:103620000024058C4EF6FF7635400584038C848893
:10363000828B48F6FF752A404FF6FF452A400D88D9
:1036400020E00000002C0140000400400008004081
:10365000000C004000100040001400400034014005
:10366000004C01400050014000540140001800404F
:10367000001C004000200040004001400044014088
:10368000004801404FF6FF7606EA05252A434DF62D
:10369000FF752B400D8906EA05352B434D8806EA58
:1036A00005352B43FA4DA84202D0FA4DA84208D165
:1036B0004BF6FF752C408D894FF6FF7606EA85158F
:1036C0002C4384808283CD88A0F84050038470BD51
:1036D000828B4FF2FF331A408283828B4FF6FF7347
:1036E00003EA01231A4382837047F0B50C4615465E
:1036F000002200210026078C4EF6FF7C07EA0C070B
:103700000784828B018C4FF6FF7707EA043640F678
:10371000FF473A404FF6FF7707EA05273A434FF64F
:10372000FF7707EA03373A43D94FB8420ED0D94F53
:10373000B8420BD0B0F1804F08D0D74FB84205D077
:10374000D64FB84202D0D64FB84206D14DF6FF77D9
:10375000394046F48057394305E047F6FF57394072
:1037600044F48057394382830184F0BD828B4FF645
:10377000F3731A408283828B0A4382837047F0B5C9
:103780000C461546002200210026078C4FF6FF6CE0
:1037900007EA0C070784828B018C4FF6FF7707EA54
:1037A00004264FF60C773A404FF6FF7707EA0317E7
:1037B0002F433A43B64FB8420ED0B64FB8420BD063
:1037C000B0F1804F08D0B44FB84205D0B34FB842E3
:1037D00002D0B34FB84206D14FF6FF57394046F4F6
:1037E0008077394305E04FF2FF57394044F4807742
:1037F000394382830184F0BD028B4FF2FF331A40BC
:103800000283028B4FF6FF7303EA01231A430283FC
:103810007047F0B50C461546002200210026078CA3
:103820004FF6EF7C07EA0C070784028B018C4FF6FA
:10383000FF7707EA041640F6FF473A404FF6FF7756
:1038400007EA03373A434FF6FF7707EA05273A437B
:103850008F4FB8420ED08F4FB8420BD0B0F1804F8F
:1038600008D08D4FB84205D08C4FB84202D08C4F53
:10387000B84206D14FF6DF77394046F0100739439A
:1038800005E04FF65F77394044F010073943028373
:103890000184F0BD028B4FF6F3731A400283028B52
:1038A0000A4302837047F0B50C46154600220021FA
:1038B000068C4FF6FE773E400684028B018C4FF655
:1038C0000C7632407E1C06EA03162E433243704EBD
:1038D000B0420ED06F4EB0420BD0B0F1804F08D046
:1038E0006D4EB04205D06D4EB04202D06C4EB0422B
:1038F00006D14FF6FD76314044F00106314305E034
:103900004FF6F576314044F00106314302830184DD
:10391000F0BD70B505460C465D4885420ED05D4849
:1039200085420BD0B5F1804F08D05B48854205D069
:103930005A48854202D05A48854200D100E000BF73
:10394000208850B92389A28861882846FFF7ABFFF9
:10395000E1882846FFF79EFF25E0208804280AD149
:103960002389A28861882846FFF753FFE18828460B
:10397000FFF742FF17E0208808280AD12389A28890
:1039800061882846FFF7FBFEE1882846FFF7EEFE38
:1039900009E02389A28861882846FFF7A6FEE1880E
:1039A0002846FFF795FE70BD2DE9F04105460C460F
:1039B00000260127608808B9022600E00026A088BA
:1039C000012801D1022700E001272088A0B923891E
:1039D000A28861882846FFF766FFE1882846FFF73E
:1039E00059FF23893A4631462846FFF712FFE188FE
:1039F0002846FFF701FF13E02389A2886188284643
:103A0000FFF707FFE1882846FFF7F6FE23893A46CD
:103A100031462846FFF747FFE1882846FFF73AFF7F
:103A2000BDE8F0810A884B881A438B881A43CB88FB
:103A30001A430B891A434B891A438B891A43A0F8FE
:103A4000442070474FF6FF71818000210180C180C2
:103A50004180017270470021018041808180C180D6
:103A6000018141818181C1817047002101804180B4
:103A7000012181800021C1800181704700210180E6
:103A800041808180C1800181418181817047000036
:103A9000002C0140003401400004004000080040B8
:103AA000000C004021B1028842F00102028004E0D3
:103AB00002884FF6FE731A400280704731B1B0F8A9
:103AC000442042F40042A0F8442005E0B0F844202D
:103AD000C2F30E02A0F8442070471AB183890B4349
:103AE000838102E083898B438381704781827047A1
:103AF00041EA0203A0F8483070471AB183890B43AA
:103B0000838102E083898B438381704701894FF66B
:103B1000F8721140018170470A46002101894FF671
:103B20008F73194011430181704730B504460D462B
:103B300029462046FFF7F0FF208940F0070020814A
:103B400030BD2DE9F04104460D4616461F46602D56
:103B500006D13B46012231462046FFF75AFE05E0DA
:103B60003B46012231462046FFF79DFE294620466E
:103B7000FFF7D2FF208940F007002081BDE8F081E7
:103B800030B50C4600210189C9B24FF6FF7505EA30
:103B90000325154325432943018130BD2DE9F0411B
:103BA00005460E4617469846002443463A46314697
:103BB0002846FFF7E5FF2C894FF6F870044044F0E3
:103BC00007044FF68F70044044F070042C81BDE868
:103BD000F081F0B504460D4616461F463B46324678
:103BE00029462046FFF7CCFF208940F48040208101
:103BF000F0BD0185828270470A46002101884FF698
:103C00008F731940114301807047F0B50C4615467B
:103C10001E460021002200230189028B038C4FF6EF
:103C2000F877394021434FF6FC473A4040F20117FC
:103C30003A434FF6DD773B404FF6FF7707EA06172A
:103C40002F433B43018102830384F0BD0A460021D8
:103C5000018B4FF68F7319401143018370470A4659
:103C60000021018B48F6FF7319404FF6FF7303EAFA
:103C700002231943018370470A460021818B4FF6C6
:103C80008F7319401143818370470A460021818B4D
:103C900048F6FF7319404FF6FF7303EA02231943F6
:103CA0008183704721B1028842F08002028004E0E3
:103CB00002884FF67F731A400280704721B18288D4
:103CC00042F00402828004E082884FF6FB731A40BF
:103CD0008280704721B1828842F00802828004E02D
:103CE00082884FF6F7731A408280704721B182882C
:103CF00042F00102828004E082884FF6FE731A408F
:103D0000828070470A460021018B4FF6F7731940F5
:103D10001143018370470A460021018B4FF2FF7364
:103D200019404FF6FF7303EA0223194301837047DA
:103D30000A460021818B4FF6F773194011438183A6
:103D400070470A460021818B4FF2FF7319404FF6EE
:103D5000FF7303EA02231943818370470A46002157
:103D6000018B4FF6FB7319401143018370470A46DC
:103D70000021018B4FF6FF3319404FF6FF7303EA22
:103D800002231943018370470A460021818B4FF6B5
:103D9000FB7319401143818370470A460021818BD0
:103DA0004FF6FF3319404FF6FF7303EA022319431E
:103DB000818370470A460021018B4FF67F731940BB
:103DC0001143018370470A460021018BC1F30E01A4
:103DD0004FF6FF7303EA02231943018370470A4633
:103DE0000021818B4FF67F73194011438183704707
:103DF0000A460021818BC1F30E014FF6FF7303EADF
:103E000002231943818370470A460021018C4FF633
:103E1000FD7319401143018470470A460021018C4B
:103E20004FF6F77319401143018470470A46002189
:103E3000018C4FF6DF7319404FF6FF7303EA02134C
:103E40001943018470470A460021018C4FF67F73A5
:103E500019404FF6FF7303EA0213194301847047B8
:103E60000A460021018C4FF6FF5319404FF6FF73AD
:103E700003EA02231943018470470A460021018C9A
:103E80004FF2FF7319404FF6FF7303EA0223194301
:103E9000018470470A460021018C4DF6FF731940DA
:103EA0004FF6FF7303EA023319430184704730B5BC
:103EB000002301248C40A3B2048C9C430484048C12
:103EC00002FA01F5ADB22C43048430BD30B50023B5
:103ED00004248C40A3B2048C9C430484048C02FA16
:103EE00001F5ADB22C43048430BD70B5034600200B
:103EF00000241846183001258D40ACB21D8CA54316
:103F00001D8409B1082909D100EB6100056825F07D
:103F1000700505600568154305600EE00D1FC5F3CB
:103F20004E052844056825F4E045056005684FF610
:103F3000FF7606EA02263543056070BD21B102888E
:103F400042F00202028004E002884FF6FD731A403C
:103F50000280704721B1028842F00402028004E02E
:103F600002884FF6FB731A400280704721B18288A5
:103F700042F08002828004E082884FF67F731A400C
:103F80008280704702884FF6F7731A4002800288D9
:103F90000A430280704782884FF68F731A408280EE
:103FA00082880A438280704702894FF6F8731A406C
:103FB000028102890A430281704702894FF67F73AA
:103FC0001A40028102890A43028170478184704746
:103FD0008185704781867047018770478187704768
:103FE000A0F84010704702884FF6FF431A40028045
:103FF00002880A43028070470146888E7047014656
:10400000088F70470146888F70470146B1F840001D
:1040100070470146888C70470146088D70470246FC
:104020000020138A0B400BB1012000E000207047F4
:10403000CA430282704730B50246002000230024A4
:10404000158A05EA0103958905EA010413B10CB14B
:10405000012000E0002030BDCA430282704700000A
:1040600010B50446FA48844208D101214015FEF7F4
:104070002DFE00216015FEF729FE17E0F548844269
:1040800008D101210015FEF721FE00212015FEF7C1
:104090001DFE0BE0F048844208D10121C803FEF761
:1040A00015FE00214FF40040FEF710FE10BD30B5A4
:1040B0000246002000235068E84C20400D790C682F
:1040C00044EA0524204350609068E54C2040D1E943
:1040D00002542C434D7944EA450420439060D06A51
:1040E00020F470000C7C641EE4B2234340EA0350C9
:1040F000D06230BD00210160017141718160C160F9
:1041000001210174704721B1826842F0010282608E
:1041100003E0826822F001028260704721B1826868
:1041200042F48072826003E0826822F480728260CE
:10413000704710B50023CBB21AB144681C434460E9
:1041400002E044689C43446010BD816841F008016E
:1041500081607047014600208A6802F008020AB1B7
:10416000012000E000207047816841F00401816077
:104170007047014600208A6802F004020AB101205B
:1041800000E00020704721B1826842F4A002826002
:1041900003E0826822F4A00282607047014600209A
:1041A0008A6802F480020AB1012000E00020704712
:1041B00010B50A4600210023416821F46041531ED6
:1041C00041EA4331416010BD21B1426842F40062CE
:1041D000426003E0426822F4006242607047F0B53A
:1041E00004460D4600200021092D11DDE068A5F1EF
:1041F0000A0606EB4607072606FA07F18843A5F1EB
:104200000A0606EB460603FA06F10843E0600CE0F6
:10421000206905EB4507072606FA07F1884305EBF9
:10422000450603FA06F108432061072A0FDA606B9E
:10423000561E06EB86071F2606FA07F18843561E10
:1042400006EB860605FA06F10843606322E00D2AB4
:104250000FDA206BD61F06EB86071F2606FA07F13A
:104260008843D61F06EB860605FA06F1084320634D
:1042700010E0E06AA2F10D0606EB86071F2606FA9B
:1042800007F18843A2F10D0606EB860605FA06F152
:104290000843E062F0BD21B1826842F4801282607E
:1042A00003E0826822F48012826070470146C86C85
:1042B00080B2704766484C300068704721B1426850
:1042C00042F48062426003E0426822F4806242600D
:1042D000704721B1426842F48052426003E0426874
:1042E00022F48052426070470A460021816821F41E
:1042F000E04111438160704721B1826842F400427D
:10430000826003E0826822F400428260704721B13B
:10431000826842F40212826003E0826822F4021290
:1043200082607047014600208A6802F400120AB1D8
:10433000012000E000207047F0B50446154600203B
:1043400000220026092911DDE068A1F10A0707EB28
:10435000470C072707FA0CF29043A1F10A0707EB75
:10436000470703FA07F21043E0600CE0206901EB15
:10437000410C072707FA0CF2904301EB410703FABF
:1043800007F210432061A06BC0F30156EF1C06F149
:10439000010CA7EB0C0707EB870C1F2707FA0CF2A1
:1043A0009043EF1C06F1010CA7EB0C0707EB870706
:1043B00001FA07F21043A063F0BD10B50A460021D0
:1043C0000023816B21F44011531E41EA03518163A4
:1043D00010BD08B5002300930090009B0B44009390
:1043E000009B1A6008BD08B50246002000900092AC
:1043F00001F12800009B184400900098006880B2EA
:1044000008BD0A4600214168164B1940114341601E
:1044100070474162826270470A460021416821F07C
:104420001F0111434160704740B1094908310968D3
:1044300041F40001064A0832116007E004490831DE
:10444000096821F40001024A083211607047000037
:104450000024014000280140003C0140FFFEF0FF25
:10446000FDF7F1FFFFFD3FFF0246002013680B4000
:104470000BB1012000E000207047CA430260704782
:1044800070B502460020002300240B125568CEB2FE
:1044900005EA060415681D4015B10CB1012000E0C5
:1044A000002070BD00220A12D34303607047000051
:1044B0001CB50C46064B7B4469460090204600F034
:1044C000A0FC04460020694600F0AEFC20461CBD5E
:1044D0006F0900000FB47CB50C0009AA009001D050
:1044E0002044401E084B7B4469460190089800F028
:1044F00088FC05461CB10020694600F095FC284662
:104500007CBC5DF814FB0000490900002DE9F04176
:104510000646002410687529314616A510D000F013
:10452000B3F9002802DA404213A507E031688A0790
:1045300001D512A502E0490704D511A5012401E027
:1045400000F0ABF900210A2206F1240709E0B0FBD4
:10455000F2FCB0FBF2F302FB1C003030785418463A
:10456000491C0028F3D123462A463046BDE8F041D5
:1045700000F0C5B9000000002D0000002B00000075
:10458000200000002DE9F05F894604464FF0000A44
:10459000DFF874B1FB44C0F820A02046E1688847EA
:1045A000002874D0252806D0D4E901219047206A3C
:1045B000401C2062F1E700265F462046E1688847FC
:1045C0002028054607DB312D05D2781910F8200C7C
:1045D00008B10643F1E7B00701D526F00406C4F898
:1045E0001CA00027C4F818A02A2D09D0284601F0E5
:1045F000B7FC38B304EB8708303DC8F8185019E011
:1046000059F8041B204604EB87029161E168884752
:10461000012F054618D1E069002820DA26F020068F
:104620001DE0D8F8180000EB800005EB40003038A2
:10463000C8F818002046E1688847054601F090FC5C
:104640000028EED1012F0AD02E2D08D12046E16896
:1046500088477F1C0546022F46F02006C4DBA06970
:10466000002803DA404246F00106A061F00701D0BD
:1046700026F010066C2D0BD0682D09D04C2D39D0AA
:104680006A2D35D0742D35D07A2D33D016E038E030
:10469000E1682F4620468847B842054609D16C2F6D
:1046A00026D04FF48060E1680643204688470546DF
:1046B00004E06C2F1AD04FF4807006430DB3A5F1BF
:1046C0004100192802D8203546F400664A4629469A
:1046D000204626604E46FBF743FD80B101280BD0F3
:1046E000F61D26F0070000F1080956E74020E4E730
:1046F0008020D8E70020D6E706F104094DE72846D8
:1047000052E7206ABDE8F09F865E000030B505469E
:104710000B462A4613F8014B12F8010B08B1A042D0
:10472000F8D01CB1002802D06D1CF1E7284630BD3E
:1047300010B5431C02E010F8011B71B18107FAD1DA
:104740004FF0013202C88C1A8C4314EAC211F9D01E
:10475000C01A0A0603D0C01E10BDC01A10BD0A043C
:1047600001D0801E10BD0902FCD0401E10BD4FF0CC
:1047700000020429C0F0128010F0030C00F08284C3
:10478000CCF1040CBCF1020F18BF00F8012BA8BF3C
:1047900020F8022BA1EB0C0100F074BC5FEAC17C95
:1047A00024BF00F8012B00F8012B48BF00F8012BB3
:1047B000704700004FF0013C50F8042B51F8043BC7
:1047C0009A4221D1A2EB0C03934313EACC1317D1E5
:1047D00050F8042B51F8043B9A4215D1A2EB0C037C
:1047E000934313EACC130BD150F8042B51F8043B3C
:1047F0009A4209D1A2EB0C03934313EACC13DBD00A
:104800004FF00000704700BFD01A01BAB1FA81F131
:1048100001F0180122FA01F0CB40C1F12001DBB216
:10482000C0B2C01A2CFA01F3D11A914311EAC31194
:10483000E6D1704770477047704770B50446856988
:104840000068C10601D5302600E02026C00707D049
:1048500070BDD4E9012130469047206A401C206297
:104860006D1EF6D570BD70B5044685690078C00729
:1048700007D170BDD4E9012120209047206A401C57
:1048800020626D1EF6D570BD09684A0501D540B29B
:104890007047C905FCD500B2704709684A0501D5C3
:1048A000C0B27047C905FCD580B2704770B50C46E0
:1048B0000546012A05D02878800600D5EA6900233C
:1048C00002E0012305E05B1C934202D2E05C002879
:1048D000F9D1A869E618C01AA861286A18442862A4
:1048E0002846FFF7AAFF04E0D5E9012114F8010BDF
:1048F0009047B442F8D32846FFF7B5FF70BD2DE9C5
:10490000F0470D4699469246044600F12408016896
:10491000880604D5E06921F01001216000E0012043
:10492000A84201DD471B00E00027A1697A1902EBCC
:104930000900081AA0612078C00602D42046FFF7BB
:104940007CFF002608E0D4E901211AF80600904710
:10495000206A401C761C20624E45F4DB2078C0069D
:104960000AD52046FFF769FF06E0D4E9012130208F
:104970009047206A401C2062381EA7F10107F4DC32
:1049800007E0D4E9012118F805009047206A401C8F
:104990002062281EA5F10105F3DC2046FFF763FF26
:1049A0002078000602D50220BDE8F0870120FBE751
:1049B00011680268006A530501D508700AE0D30542
:1049C00001D5088006E0130603D5C217C1E900022D
:1049D00000E008600120704770472DE9FF4F0C464A
:1049E0001E464FF0FF378BB0D2E90001DDF8608042
:1049F0000A908A46C1F30A5505B93D46002108468A
:104A00004FF00000BAF1000F00F4400005DA00EBAF
:104A100080004FF4400101EA50004FEA9059B9F18B
:104A2000010F00DDB9460A9850EA4A000ED044F65C
:104A30001050A5F2FF3545432F14B8F1000F1ED0DA
:104A40007542291E1EDDC9F100021CE0B8F1010FFC
:104A50004FF0000001D0302103E0F24305E0215483
:104A6000401CB042FBDB30460022002121540B9950
:104A7000C1F80880C1E900200FB0BDE8F08FBD1B70
:104A80006D1CDEE74A4600DA694206A800F054FDD4
:104A900006AB93E8070003AB83E8070050460A998A
:104AA00000F01FFE8DE80700A0F500501F380090B1
:104AB0000398002D0ADD42F21F014A4608440023F4
:104AC00003A90390684601F088F809E0A0F50050BA
:104AD0004A461F38002303A90390684601F092F864
:104AE0008DE807000004000C03D04FF0FF304108B0
:104AF00000E01046B8F1000F03D0002200921546E6
:104B00001EE0751E05D400F0E7FA303262556D1EC6
:104B1000F9D5B3460122084302D000227F1C04E0ED
:104B20002078302801D100227F1E002A099784D0E6
:104B30001DE0112D07DA00F0CFFA303262556D1CFE
:104B400050EA0102F5D1084302D00098C8B10EE046
:104B50000021681E05E0235C625C63542254401E01
:104B6000491C8142F7DBAB46A81B401E0990002080
:104B700004F80B000B98099AC0F80880C0E9002BD4
:104B80007AE711264FF0000857E72DE9F04F8846E5
:104B90000446D21D22F0070191B0D1E90001CDE910
:104BA0000A0101F066F902460B98C00F01D02D20D2
:104BB00007E02068810701D52B2002E0202101EACF
:104BC000C000032A099001D0072A05DB03464146AD
:104BD000204600F045FC0BE12078800601D5E06915
:104BE00000E00620B8F1650F814606D0B8F1660FE7
:104BF00018D0B8F1670F70D131E00020B9F1110F72
:104C0000009001DB112301E009F101030AAA01A9C7
:104C10000CA8FFF7E2FEDDE90C70002609F10105A2
:104C2000834647E001204B4600904FF000470AAA18
:104C300001A90CA8FFF7D1FEDDE90DB00C995D4686
:104C4000002610B909F101000D18B9EB050003D4D5
:104C5000C0F1FF3609F10105A5EB09002BE0B9F120
:104C6000010F01DA4FF001090020B9F1110F009096
:104C7000484601DD112300E003460AAA01A90CA859
:104C8000FFF7ABFEDDE90C704D4600268346207829
:104C900000070AD4AB4500DA5D4601A8012D04DD0A
:104CA000411911F8011C302907D04F4502DA17F1DC
:104CB000040F04DA012082460FE06D1EEEE7002F9C
:104CC00002DCED1B3E4403E0781CA84200DD7D1CA5
:104CD000B81B00F1010A4FF000472078000703D409
:104CE000AA4501DB4FF0FF3A0021B7F1004F0DF16B
:104CF00043088DF8431024D002202B23002F01DA23
:104D00007F422D230A21021EA0F1010000DC5FB1C9
:104D100097FBF1FC97FBF1F201FB1C7C17460CF1B1
:104D2000300C08F801CDEEE7A8F1010003702188EE
:104D3000090501D5452100E06521A0F1010800F831
:104D4000011C09980FA9A1EB0807FF1D00B1012064
:104D5000411901EBEA70A1693844081A401EA061AC
:104D60002078C00602D42046FFF767FD099828B1D5
:104D7000D4E901219047206A401C20622078C006B7
:104D800022D52046FFF759FD1EE0002E04DBB34577
:104D900002DD01A8805D00E03020D4E901219047C8
:104DA000206A401C2062761CAAF101005FEA000A1A
:104DB0000AD100F08DF9C0680168405CD4E9012196
:104DC0009047206A401C2062281EA5F10105DCDC0A
:104DD00007E0D4E9012118F8010B9047206A401C34
:104DE0002062381EA7F10107F3DC2046FFF73BFDE8
:104DF000032011B041E6000001694A1C02610878F5
:104E0000704700B58FB0CDE901310021059105490A
:104E10007944CDE9031011466846FFF7B3FB0FB0A4
:104E200000BD0000E5FFFFFF0A6802F8010B0A6001
:104E30007047D1E900239A4202D2531C0B601070D4
:104E4000704700002DE9FF5F15468A460446DFF8EB
:104E5000AC80F8440027D8E900103E46CDE90010A8
:104E600010E03AF816106A4602A800F0D7FB411C81
:104E700007D02178890603D5E269391891420DD807
:104E80000744761C2078800602D5E069B84205DD2B
:104E9000AE42E6DB3AF816000028E2D1A069C01B5A
:104EA000A0612046FFF7C9FCD8E90010CDE9001049
:104EB000002017E03AF818106A4602A800F0AEFB8E
:104EC000B0F1FF3F81460BD000250DF1080B05E046
:104ED000D4E901211BF8050090476D1C4D45F7D31F
:104EE00008F10100B0428046E4DB206A38442062C9
:104EF0002046FFF7B8FCBDE8FF9F0000DA55000030
:104F00002DE9F0418046D21D22F007020025D2E9AA
:104F10000002F52915A614D0011E72F1000106DA6F
:104F20000023D0EB030063EB020211A608E0D8F8DF
:104F300000108B0701D50FA602E0490701D50EA688
:104F400001251146002408F1240704E000F0C4F80C
:104F500030323A55641C50EA0102F7D12B463246F2
:104F600021464046BDE8F041FFF7C9BC0000000003
:104F70002D0000002B0000002000000030B40021B4
:104F800000F1240408E002F00705D208303542EAB7
:104F90004372DB086554491C52EA0305F3D10468E7
:104FA000002310A2250707D5A40600D421B1C469A7
:104FB00001230DA2641EC46130BCFFF7A0BC10B574
:104FC000044621461068FFF768FC02462046BDE80B
:104FD00010400023D2E7D21D22F00701D1E90023BF
:104FE000CCE700000000000030000000F0B40D46E7
:104FF0000188090502D5214C7C4402E01F4C7C4409
:105000000E34002100F1240608E002F00F07120917
:10501000E75D42EA03721B097754491C52EA030711
:10502000F3D102780023120704D5702D06D009B100
:10503000022311342246F0BCFFF761BC0123103477
:10504000F8E770B504460D4621461068FFF725FCC9
:10505000024629462046BDE870400023C6E7D21D1F
:1050600022F00703D3E90023C0E70368126843F086
:10507000200303600823C3610023B7E73C5400000A
:105080004FF0000200B5134694469646203922BFE1
:10509000A0E80C50A0E80C50B1F12001BFF4F7AF2C
:1050A000090728BFA0E80C5048BF0CC05DF804EB0E
:1050B000890028BF40F8042B08BF704748BF20F87C
:1050C000022B11F0804F18BF00F8012B7047000031
:1050D00000487047780C002030B5B0F10A024FEA62
:1050E000900E71F100034EEA817EB0EB0E0061EB91
:1050F00091014FEA101E4EEA017E10EB0E0041EBCB
:1051000011114FEA102E4EEA016E10EB0E0041EB2A
:1051100011214FEA104E4EEA014E10EB0E0041EB0A
:105120001141401841F100014FEAD00040EA4170BE
:105130004FEAD10110EB80054FEA810444EA9074F4
:1051400044EB01046D1944EB0404521BA3414FF0DE
:10515000000348BF0A3200D530BD401C41F10001B8
:1051600030BD00002DE9F04F04460D46D21D22F05F
:10517000070089B0D0E900974846394600F079FE2B
:105180000246F80F01D02D2307E02068810701D5E2
:105190002B2302E0202101EAC0038DF820300BB15F
:1051A000012000E00020032A824601D0072A04DB08
:1051B0002946204600F054F93FE12078800601D4CA
:1051C0000D2500E0E569C7F30A560D2D49DA0021E7
:1051D0004FEA175B08464FF00000002F00F4400034
:1051E00007DA00EB80004FF4400100EBD07001EAD9
:1051F00060008115012901DD4FF0FF3100224FEAE7
:10520000850CBCF1180F06D31346ACF118004FF013
:105210008052C24003E04FF4801323FA0CF30CF1E8
:105220000C0CBCF1200F04D3ACF1200C09FA0CF0EB
:1052300001E007FA0CF000294FF0004801DD18B931
:105240000FE00ED140450CD319EB02095F4121B9A3
:10525000404502D19F4329EA0209BBEB175F00D00A
:10526000761C2088000502D57B48784402E07A4805
:105270007844193808AA302302F80A30037C0AF16E
:105280000101002E0AF1020A53546A4602DC4FF073
:10529000300101E04FF031014FF001088DF80010AE
:1052A00002D0A6F2FF3603E059EA470100D06B4E68
:1052B000002D02DC2178090704D54FF002082E21C9
:1052C0008DF80110C44600210BE0C7F303433F01F2
:1052D000C35C491C6D1E02F80830052908F101085D
:1052E00001DA002DF1DC00210CE000EB1973491C00
:1052F0001B786D1E082902F808304FEA091908F1D9
:10530000010801DA002DF0DC21688B0602D516E0D9
:10531000A8F10108E04505DD02EB080313F8013CA4
:10532000302BF5D0B8F1000F09DD02EB080313F8BC
:10533000013C2E2B03D1090701D4A8F10108002D4F
:1053400005DD3E2102F808106D1E08F10108407CC1
:10535000002E02F8080008F1010804DA2D20764238
:1053600002F8080002E02B2002F808000A214FF49E
:105370007A70864208F101080BDB96FBF0F33033BC
:1053800002F8083096FBF0F308F1010800FB136601
:1053900001E0642E0CDB642096FBF0F3303302F85E
:1053A000083096FBF0F308F1010800FB136601E0FA
:1053B0000A2E06DB96FBF1F0303002F8080008F107
:1053C000010896FBF1F001FB1060303002F8080094
:1053D000A16908F1010808EB050202EB0A00081AAE
:1053E000A0612078C00602D42046FFF726FA216A81
:1053F00008AE01EB0A00206204E0D4E9012116F8AE
:10540000010B9047BAF1010AF7D22078C00602D505
:105410002046FFF712FA6E4609E016F8010B3E2807
:105420000FD0D4E901219047206A401C2062B8F1D6
:105430000108F2D22046FFF716FA09B00320BDE8B2
:10544000F08F206A2844206203E0D4E90121302053
:1054500090476D1EEBD3F8E7A552000002FCFFFF5A
:105460002DE9F0411F46044603260168072A01F48E
:10547000006004DB08B116A505E016A503E008B13D
:1054800015A500E015A521F010002060A069C01E40
:10549000A0610FB1401EA0612046FFF7CEF94FB1C9
:1054A000D4E9012138469047206A401C2062C01C84
:1054B000206206E0206AFAE7D4E9012115F8010B21
:1054C0009047761EF8D22046FFF7CDF9BDE8F0816F
:1054D0004E414E006E616E00494E4600696E660098
:1054E00010B5436913B1AFF3008001E0FFF7DEF9B7
:1054F000012010BD127800F124010A7000224A70C8
:105500000122EDE711684FF0FF32E9E710B543697A
:1055100013B1AFF3008001E0FFF794FC012010BD50
:10552000128800F1240182840022C2840122EDE766
:1055300011684FF0FF32E9E72DE9F0478146164642
:105540008AB0354878440DC88DE80D00324878445B
:10555000801C03AC0DC884E80D0041F69B30084464
:10556000372190FBF1F290FBF1F5A5F1800501FBED
:1055700012041B3C02D56442012000E00020DFF849
:1055800098A080460027FA44AAF1BE0A0EE0E00780
:105590000AD03246684607EB470101230AEB810136
:1055A00000F030FB8DE8070064107F1C002CEED16A
:1055B000194F7F44AE3F19E0E80715D007EB041000
:1055C0000DF1180A90E80E008AE80E00C068F0425B
:1055D00001D1981908903246012306A903A800F0CA
:1055E00011FB03AB83E807006D10641C002DE3D1B1
:1055F0004FF0010332466946B8F1000F03A802D00C
:1056000000F0EBFA01E000F0FDFAC9E90001C9F889
:1056100008200AB0BDE8F0875C50000070B516465F
:105620000C46054600F044F8036893F80101012890
:1056300006D0FF2C0FD8185D68B101202C7070BD0A
:10564000D3F807013246214603F2071303442846E4
:10565000BDE8704018474FF0FF3070BD00487047FC
:10566000580C00207546FFF7F9FFAE460500694665
:10567000534620F00700854618B020B5FCF7DEFF42
:10568000BDE820404FF000064FF000074FF0000843
:105690004FF0000B21F00701AC46ACE8C009ACE8C4
:1056A000C009ACE8C009ACE8C0098D4670470000ED
:1056B00010B5FFF70DFD001D10BD00BF150D00005A
:1056C00010B50446AFF300802046BDE81040FAF75D
:1056D000AABD000001491820ABBEFEE7260002006B
:1056E00070475FEA400C08BF91F0000F4FEA8C232F
:1056F0004FEAC12243EA51514FEA1C5018BF00F54E
:10570000F0404FEA300018BF41F000415FEA6C5CA6
:1057100000F02980BCF1FF3F08BF40F08040704797
:10572000130C06BF12044FF0100C4FF0000C130EB8
:1057300004BF12020CF1080C130F04BF12010CF18C
:10574000040C930F04BF92000CF1020CD30F04BFA2
:1057500052000CF1010C11464FF00002A0F11F00A5
:10576000A0EB0C00704711F0004F08BF704731F0FC
:1057700000413FF4D5AF0B0C06BF09044FF0100CED
:105780004FF0000C0B0E04BF09020CF1080C0B0FBC
:1057900004BF09010CF1040C8B0F04BF89000CF14C
:1057A000020CCB0F04BF49000CF1010CCCF120031B
:1057B000A0EB0C0022FA03F302FA0CF241EA030117
:1057C00000F10100704720F07F4C80EA030023F0D5
:1057D0007F47ACEB070303F57C5300F0004003F177
:1057E000FF032DE980494FEA154B09B44FEA1443F2
:1057F00025EA0B4E24EA03480FF2042606EB132792
:1058000049083E785FEA320203FB0667C7F50007E6
:1058100007FB06F64FEA54374FEAD64606F1020672
:1058200007FB066CCCF1005C4FEA1C472CEA074CE6
:1058300007FB06F40CFB06F504EB15464FEA96163B
:1058400034BF00204FF000404FEAD13706FB07FC81
:105850004FEA1C4C0CFB0BF7D21B03FB0CF761EB64
:1058600007010CFB0EF7B0EB074072EB17420CFB85
:1058700008F734BFA2EB0742B2EB074261EB1741D6
:105880004FEA0C444FEA910706FB07FC4FEA1C4C19
:105890000CFB0BF7B0EBC74072EB573203FB0CF776
:1058A00034BFA2EBC742B2EBC74261EB57310CFBEE
:1058B0000EF7B0EBC70072EB57720CFB08F734BF62
:1058C000A2EBC702B2EBC70261EB5771039F4FEA2D
:1058D000816141EA921104EBCC044FEAD1374FEADF
:1058E000826206FB07FC42EA90124FEA80604FEAB0
:1058F0001C4C0CFB0BF7D21B03FB0CF761EB0701F5
:105900000CFB0EF7B0EB074072EB17420CFB08F7ED
:1059100034BFA2EB0742B2EB074261EB17414FEAFB
:105920008C554FEA910704EB9C2406FB07FC4FEAD9
:105930001C4C0CFB0BF7B0EBC74072EB573203FB70
:105940000CF734BFA2EBC742B2EBC74261EB573151
:105950000CFB0EF7B0EBC70072EB57720CFB08F7AD
:1059600034BFA2EBC702B2EBC70261EB577115EB74
:105970004C254FEA816141EA92114FEA82624FEA77
:10598000D13742EA901206FB07FC44F100044FEACB
:1059900080604FEA1C4C0CFB0BF7D21B03FB0CF78F
:1059A00061EB07010CFB0EF7B0EB074072EB1742FF
:1059B0000CFB08F734BFA2EB0742B2EB074261EBE6
:1059C000174115EB1C154FEA813141EA92414FEA2C
:1059D000823242EA90424FEA80304FEA0C7644F13C
:1059E000000448EA03434EEA0B484FF0000EB2EBC6
:1059F000080C71EB030724BF624639464EEB0E0ECE
:105A00004FF0000B0018524149414BEB0B0BB2EB2E
:105A1000080C71EB03077BF1000B24BF624639468B
:105A20004EEB0E0E4FF0000B0018524149414BEB6C
:105A30000B0BB2EB080C71EB03077BF1000B24BFDF
:105A4000624639464EEB0E0E51EA020718BF46F089
:105A5000010616EB0E7655F1000254F1000103D554
:105A6000BDE88901BDE80088BDE88901BDE80048BE
:105A7000B619524141EB0101A3F101037047808047
:105A80007F7E7D7C7B7A7978777676757473727198
:105A900071706F6E6E6D6C6C6B6A6A696868676650
:105AA00066656464636362616160605F5F5E5E5DE2
:105AB0005D5C5C5B5B5A5A59595858575756565556
:105AC00055555454535352525251515050504F4FB8
:105AD0004F4E4E4D4D4D4C4C4C4B4B4B4A4A4A4908
